:020000040800F2
:1000000008080020AD0300087522000877220008C8
:100010007B2200087F2200088322000800000000E5
:10002000000000000000000000000000872200081F
:1000300089220008000000008B2200088D220008A1
:10004000C7030008C7030008C7030008C703000868
:10005000C7030008C703000885330008C70300086A
:10006000C7030008C70300086B280008C70300087F
:10007000C7030008C7030008C7030008C703000838
:10008000C7030008C7030008C7030008C703000828
:10009000C7030008C7030008C7030008C703000818
:1000A000C7030008C7030008C7030008C703000808
:1000B000C7030008C7030008C7030008C7030008F8
:1000C000C7030008C7030008C7030008C7030008E8
:1000D000C70300082B22000833220008C7030008CA
:1000E000C7030008C7030008C7030008C7030008C8
:1000F000C7030008C7030008C7030008C7030008B8
:10010000C7030008C7030008C7030008C7030008A7
:10011000C7030008C7030008C7030008C703000897
:10012000C7030008C7030008C7030008C703000887
:1001300000F002F800F03AF80AA090E8000C8244BF
:100140008344AAF10107DA4501D100F02FF8AFF29C
:10015000090EBAE80F0013F0010F18BFFB1A43F0A5
:10016000010318476C4600008C460000103A24BF7B
:1001700078C878C1FAD8520724BF30C830C144BF0C
:1001800004680C607047000000230024002500264E
:10019000103A28BF78C1FBD8520728BF30C148BFEA
:1001A0000B6070471FB51FBD10B510BD03F009F9F6
:1001B0001146FFF7F7FF02F0F9FD03F027F903B44A
:1001C000FFF7F2FF03BC03F02BF900000CB5002091
:1001D000019000906C48006840F480306A490860E3
:1001E00000BF6948006800F4003000900198401C8E
:1001F0000190009818B90198B0F5A06FF1D162484C
:10020000006800F4003010B10120009001E00020EF
:1002100000900098012843D15C48006840F010002D
:100220005A4908600846006820F003000860084644
:10023000006840F002000860534840685249486036
:100240000846406848600846406840F4806048605E
:100250000846406820F47C1048600846406840F436
:10026000E81048600846006840F08070086000BFF1
:100270004548006800F000700028F9D04248406806
:1002800020F00300404948600846406840F0020002
:10029000486000BF3C48406800F00C000828F9D1D5
:1002A0000CBD10B5FFF792FF10BD10B536480068C1
:1002B00040F001003449086008464068344908406D
:1002C0003149486008460068324908402E490860B4
:1002D0000846006820F4802008600846406820F442
:1002E000FE0048604FF41F008860FFF7DAFF4FF010
:1002F00000602949086010BD10B5002100200022CF
:10030000214B5B6803F00C0121B1042906D00829B8
:1003100028D107E0214B224C236027E01F4B204CC3
:10032000236023E0184B5B6803F47010164B5B6886
:1003300003F48032022303EB904022B9194B43436C
:10034000174C23600DE0104B5B6803F4003323B1BE
:10035000144B4343124C236003E0104B4343104CB7
:10036000236003E00D4B0E4C236000BF00BF064B23
:100370005B68C3F303130C4CE15C094B1B68CB4077
:10038000074C236010BD0000001002400020024016
:100390000000FFF8FFFFF6FE08ED00E000127A0013
:1003A0000000002000093D000400002009488047AB
:1003B00009480047FEE7FEE7FEE7FEE7FEE7FEE747
:1003C000FEE7FEE7FEE7FEE704480549054A064B5F
:1003D00070470000AB02000831010008080200204D
:1003E00008080020080400200804002031490143C7
:1003F000314A1160704770B5002100230F22C47884
:1004000004B32D4C246804F4E064C4F5E064210ACC
:10041000C1F10403CA40447804FA03F1847814401B
:1004200021430901254C0678A155047804F01F05E5
:100430000124AC4005786D11AD0005F1E025C5F84B
:10044000004109E0047804F01F050124AC401C4D74
:100450000678761145F8264070BD1A4A0A400243D4
:10046000154B1B1F1A60704739B1134A121D1268D1
:100470000243114B1B1D1A6006E00F4A121D126841
:1004800082430D4B1B1D1A607047042808D14FF0A2
:10049000E021096941F004014FF0E022116107E019
:1004A0004FF0E021096921F004014FF0E0221161D1
:1004B000704700000000FA050CED00E000E400E0E9
:1004C00080E100E080FFFF1F002044490860091D13
:1004D0000860091D0860091D086041483F49143142
:1004E0000860704700213D498279002A3AD00A46C7
:1004F000126803689A430B461A600A1D1268036863
:100500009A430B1D1A60027911440A6803681A4362
:100510000A60324A0832126803689A432F4B083344
:100520001A601A1D126803689A432C4B0C331A6028
:100530004279102A0ED11A1F126803681A43274BFA
:1005400008331A601A1D126803681A43234B0C33D0
:100550001A600DE02149427911440A6803681A4380
:100560000A6005E0027911440A6803689A430A6048
:1005700070470021016001710C21417100218171DE
:1005800070471649103109680143144A103211604E
:10059000704701460020114A143212680A400AB11D
:1005A000012000E0002070470C49143108607047BA
:1005B000014600200022094B1B6803EA0102074B99
:1005C00014331B680B4013B10AB1012000E0002076
:1005D0007047024914310860704700000004014070
:1005E000FFFF0F0010B50446CC48844208D101211A
:1005F000042000F02DFB0021042000F029FB46E040
:10060000C748844208D10121082000F021FB0021C5
:10061000082000F01DFB3AE0C248844208D10121C5
:10062000102000F015FB0021102000F011FB2EE03F
:10063000BD48844208D10121202000F009FB00219F
:10064000202000F005FB22E0B848844208D10121B7
:10065000402000F0FDFA0021402000F0F9FA16E0F9
:10066000B348844208D10121802000F0F1FA002132
:10067000802000F0EDFA0AE0AE48844207D1012163
:10068000801500F0E5FA0021A01500F0E1FA10BD98
:1006900010B50121084600F0DBFA0021012000F02E
:1006A000D7FA10BD2DE9F0410246002500260020B2
:1006B00000230024002791F803C00CF00F0591F8E7
:1006C00003C00CF0100CBCF1000F03D091F802C075
:1006D0004CEA050591F800C0BCF1000F31D0146858
:1006E00000202BE04FF0010C0CFA00F3B1F800C031
:1006F0000CEA03069E4220D183004FF00F0C0CFA47
:1007000003F7BC4305FA03FC4CEA040491F803C068
:10071000BCF1280F06D14FF0010C0CFA00FCC2F816
:1007200014C00AE091F803C0BCF1480F05D14FF0A6
:10073000010C0CFA00FCC2F810C0401C0828D1D3F0
:100740001460B1F800C0BCF1FF0F34DD5468002024
:100750002EE000F1080C4FF0010808FA0CF3B1F894
:1007600000C00CEA03069E4221D183004FF00F0C1B
:100770000CFA03F7BC4305FA03FC4CEA040491F8B5
:1007800003C0BCF1280F05D100F1080C08FA0CF8E1
:10079000C2F8148091F803C0BCF1480F07D100F1F2
:1007A000080C4FF0010808FA0CF8C2F81080401C41
:1007B0000828CED35460BDE8F0814FF6FF71018068
:1007C000022181700421C1707047024600209368A5
:1007D0000B400BB1012000E0002070470146886803
:1007E00080B2704702460020D3680B400BB1012055
:1007F00000E0002070470146C86880B27047016180
:100800007047416170470AB1016100E04161704782
:10081000C16070474FF480320A4382618161826116
:1008200082698269704702460020434B18684FF680
:100830008073184040EA021008433F4B186070472D
:100840003E49C8617047F0B50A46002300240021E4
:10085000002500F00046B6F1004F02D1364EF16996
:1008600001E0354E7168C0F3034583B200F44016D1
:10087000B6F5401F08D121F070612F4E766826F042
:1008800070662D4F7E6012E000F48016B6F5801F72
:1008900006D1032606FA05F4A14341F0706106E093
:1008A000460D360103FA06F6B14341F0706122B1FC
:1008B000460D360103FA06F6314300F00046B6F164
:1008C000004F02D11C4EF16101E01B4E7160F0BD82
:1008D00030B500228B071C0F0F2303FA04F2164BCE
:1008E00008338C1053F824309343134C08348D1084
:1008F00044F8253023468C1053F824308C07240FFD
:1009000000FA04F423430C4C08348D1044F82530CD
:1009100030BD0A49DC310860704700000008014022
:10092000000C01400010014000140140001801407B
:10093000001C014000200140000001400000204256
:10094000DF48006840F00100DD4908600846406863
:10095000DC490840DA49486008460068DA4908403E
:10096000D74908600846006820F4802008600846DF
:10097000406820F4FE0048604FF41F008860704714
:10098000CF49096821F48031CD4A116011460968C8
:1009900021F480211160B0F5803F03D0B0F5802FA5
:1009A0000ED106E0C649096841F48031C44A11609D
:1009B00007E0C349096841F4A021C14A116000E081
:1009C00000BF00BF704710B5014600220023002081
:1009D0004A11012A02D1BA4C236806E0022A02D148
:1009E000B74C236A01E0B64C636A01F01F02012490
:1009F00094401C400CB1012000E0002010BD38B52F
:100A0000002000900024002500BF3120FFF7DBFF0D
:100A100005460098401C00900098B0F5A06F01D0EA
:100A2000002DF2D03120FFF7CEFF08B1012400E005
:100A30000024204638BD01460020A14A106820F05D
:100A4000F80040EAC10010607047A0490860704794
:100A5000024600209A4B586820F47C1042EA0103B9
:100A60001843974B5860704798490866704701468D
:100A70000020934A506820F00300084350607047FC
:100A80008F48406800F00C007047014600208C4AF7
:100A9000506820F0F0000843506070470146002085
:100AA000874A506820F4E060084350607047014670
:100AB0000020834A506820F4605040EAC100506032
:100AC000704729B17E4A527A02437D4B5A7204E044
:100AD0007B4A527A82437A4B5A7270477B49D831AB
:100AE0000860704701460020754A506820F4404075
:100AF0000843506070470021714A20321170704ADB
:100B000082F82010012802D004280AD104E0012133
:100B10006B4A2032117005E00521694A20321170BC
:100B200000E000BF00BF7047694908607047644932
:100B3000096A0143624A1162704765494439086095
:100B4000704730B500210022002400235C4D6D6801
:100B500005F00C0121B1042905D0082923D105E0B5
:100B60005C4D056022E05B4D05601FE0544D6D68F3
:100B700005F47012524D6D6805F48034022505EBC2
:100B800092421CB9544D554305600BE04C4D6D68C5
:100B900005F400351DB1504D5543056002E04D4D43
:100BA0005543056002E04B4D056000BF00BF444D5A
:100BB0006D6805F0F0010909484D6B5C0568DD4082
:100BC00045603F4D6D6805F4E061090A434D6B5C7B
:100BD0004568DD4085603A4D6D6805F46051C90A8D
:100BE0003E4D6B5C4568DD40C560354D6D6805F474
:100BF0004041890B3A4D6B5CC568B5FBF3F5056167
:100C000030BD29B12E4A526902432D4B5A6104E08E
:100C10002B4A526982432A4B5A61704729B1284AAC
:100C200092690243264B9A6104E0254A9269824305
:100C3000234B9A61704729B1214AD2690243204B64
:100C4000DA6104E01E4AD26982431D4BDA617047C3
:100C500029B11B4AD2680243194BDA6004E0184AF2
:100C6000D2688243164BDA60704729B1144A126980
:100C70000243134B1A6104E0114A12698243104B7C
:100C80001A61704712494039086070470F49C864BB
:100C900070470B49C87170470948406A40F080703E
:100CA00007494862704701460020054A92680A4099
:100CB0000AB1012000E000207047014988727047A6
:100CC000001002400000FFF8FFFFF6FE0000424265
:100CD0008004424200127A0000093D001400002006
:100CE0002400002010B50446FE48844208D10121AA
:100CF000C014FFF7ADFF0021E014FFF7A9FFC4E027
:100D0000B4F1804F08D101210846FFF7AEFF002162
:100D10000120FFF7AAFFB8E0F348844208D101217F
:100D20000220FFF7A2FF00210220FFF79EFFACE0A8
:100D3000EE48844208D101210420FFF796FF0021EC
:100D40000420FFF792FFA0E0E948844208D1012186
:100D50000820FFF78AFF00210820FFF786FF94E0B4
:100D6000E448844208D101211020FFF77EFF0021D2
:100D70001020FFF77AFF88E0DF48844208D1012184
:100D80002020FFF772FF00212020FFF76EFF7CE09C
:100D9000DA48844208D101214014FFF759FF0021AD
:100DA0006014FFF755FF70E0D548844209D1012156
:100DB000C804FFF74DFF00214FF40020FFF748FF64
:100DC00063E0D048844209D101210805FFF740FFC4
:100DD00000214FF48010FFF73BFF56E0CA488442E1
:100DE00009D101214805FFF733FF00214FF400101E
:100DF000FFF72EFF49E0C548844208D10121402079
:100E0000FFF733FF00214020FFF72FFF3DE0C048F0
:100E1000844208D101218020FFF727FF0021802094
:100E2000FFF723FF31E0BB48844208D10121801540
:100E3000FFF71BFF0021A015FFF717FF25E0B648BD
:100E4000844209D101210804FFF702FF00214FF479
:100E50008030FFF7FDFE18E0B048844209D101213F
:100E60004804FFF7F5FE00214FF40030FFF7F0FED5
:100E70000BE0AB48844208D101218804FFF7E8FE6B
:100E800000214FF48020FFF7E3FE10BD002202880E
:100E9000944B98420ED0994B98420BD0B0F1804FB2
:100EA00008D0914B984205D0904B984202D0904B7D
:100EB000984204D14FF68F731A404B881A438D4BDA
:100EC000984207D08C4B984204D04FF6FF431A400B
:100ED000CB881A4302808B8883850B880385814BDE
:100EE00098420BD0854B984208D08B4B984205D046
:100EF0008A4B984202D08A4B984201D10B7A0386E2
:100F000001238382704770B5002400220023058CE2
:100F10004FF6FE7635400584028C8388048B4FF6AD
:100F20008F752C40B51E2C400D882C43751E2A4011
:100F30000D892A434D882A436A4DA8420BD06F4D34
:100F4000A84208D0744DA84205D0744DA84202D0E2
:100F5000734DA84213D14FF6F7752A404D892A43A5
:100F60004FF6FB752A408D882A434FF6FF652B40CC
:100F70004FF6FF552B408D892B43CD892B43838022
:100F80000483CD888586028470BD70B5002400225C
:100F90000023058C4FF6EF7635400584028C83885C
:100FA000048B48F6FF752C404FF6FF452C400D880A
:100FB0004FF6FF7606EA05252C434FF6DF752A40EB
:100FC0000D8906EA05152A434D8806EA05152A43C8
:100FD000444DA84202D0494DA8421DD14FF67F751D
:100FE0002A404D894FF6FF7606EA05152A434FF64B
:100FF000BF752A408D8806EA05152A434FF6FF354E
:101000002B404FF2FF752B408D8906EA85052B4357
:10101000CD8906EA85052B4383800483CD88058727
:10102000028470BD70B5002400220023058C4FF6A9
:10103000FF6635400584028C8388848B4FF68F755C
:101040002C404FF6FC752C400D882C434FF6FF5575
:101050002A400D894FF6FF7606EA05252A434D887A
:1010600006EA05252A431F4DA84202D0234DA84277
:101070001DD14FF2FF752A404D894FF6FF7606EAE3
:1010800005252A434FF6FF352A408D8806EA0525B7
:101090002A434EF6FF752B404DF6FF752B408D8988
:1010A00006EA05152B43CD8906EA05152B438380F7
:1010B0008483CD888587028470BD70B500220023AB
:1010C0000024058C4EF6FF7635400584038C848819
:1010D000828B48F6FF752A404FF6FF452A400D885F
:1010E00020E00000002C0140000400400008004007
:1010F000000C00400010004000140040003401408B
:10110000004C0140005001400054014000180040D4
:10111000001C00400020004000400140004401400D
:10112000004801404FF6FF7606EA05252A434DF6B2
:10113000FF752B400D8906EA05352B434D8806EADD
:1011400005352B43FA4DA84202D0FA4DA84208D1EA
:101150004BF6FF752C408D894FF6FF7606EA851514
:101160002C4384808283CD88A0F84050038470BDD6
:10117000828B4FF2FF331A408283828B4FF6FF73CC
:1011800003EA01231A4382837047F0B50C461546E3
:10119000002200210026078C4EF6FF7C07EA0C0790
:1011A0000784828B018C4FF6FF7707EA043640F6FE
:1011B000FF473A404FF6FF7707EA05273A434FF6D5
:1011C000FF7707EA03373A43D94FB8420ED0D94FD9
:1011D000B8420BD0B0F1804F08D0D74FB84205D0FD
:1011E000D64FB84202D0D64FB84206D14DF6FF775F
:1011F000394046F48057394305E047F6FF573940F8
:1012000044F48057394382830184F0BD828B4FF6CA
:10121000F3731A408283828B0A4382837047F0B54E
:101220000C461546002200210026078C4FF6FF6C65
:1012300007EA0C070784828B018C4FF6FF7707EAD9
:1012400004264FF60C773A404FF6FF7707EA03176C
:101250002F433A43B64FB8420ED0B64FB8420BD0E8
:10126000B0F1804F08D0B44FB84205D0B34FB84268
:1012700002D0B34FB84206D14FF6FF57394046F47B
:101280008077394305E04FF2FF57394044F48077C7
:10129000394382830184F0BD028B4FF2FF331A4041
:1012A0000283028B4FF6FF7303EA01231A43028382
:1012B0007047F0B50C461546002200210026078C29
:1012C0004FF6EF7C07EA0C070784028B018C4FF680
:1012D000FF7707EA041640F6FF473A404FF6FF77DC
:1012E00007EA03373A434FF6FF7707EA05273A4301
:1012F0008F4FB8420ED08F4FB8420BD0B0F1804F15
:1013000008D08D4FB84205D08C4FB84202D08C4FD8
:10131000B84206D14FF6DF77394046F0100739431F
:1013200005E04FF65F77394044F0100739430283F8
:101330000184F0BD028B4FF6F3731A400283028BD7
:101340000A4302837047F0B50C461546002200217F
:10135000068C4FF6FE773E400684028B018C4FF6DA
:101360000C7632407E1C06EA03162E433243704E42
:10137000B0420ED06F4EB0420BD0B0F1804F08D0CB
:101380006D4EB04205D06D4EB04202D06C4EB042B0
:1013900006D14FF6FD76314044F00106314305E0B9
:1013A0004FF6F576314044F0010631430283018463
:1013B000F0BD70B505460C465D4885420ED05D48CF
:1013C00085420BD0B5F1804F08D05B48854205D0EF
:1013D0005A48854202D05A48854200D100E000BFF9
:1013E000208850B92389A28861882846FFF7ABFF7F
:1013F000E1882846FFF79EFF25E0208804280AD1CF
:101400002389A28861882846FFF753FFE188284690
:10141000FFF742FF17E0208808280AD12389A28815
:1014200061882846FFF7FBFEE1882846FFF7EEFEBD
:1014300009E02389A28861882846FFF7A6FEE18893
:101440002846FFF795FE70BD2DE9F04105460C4694
:1014500000260127608808B9022600E00026A0883F
:10146000012801D1022700E001272088A0B92389A3
:10147000A28861882846FFF766FFE1882846FFF7C3
:1014800059FF23893A4631462846FFF712FFE18883
:101490002846FFF701FF13E02389A28861882846C8
:1014A000FFF707FFE1882846FFF7F6FE23893A4653
:1014B00031462846FFF747FFE1882846FFF73AFF05
:1014C000BDE8F0810A884B881A438B881A43CB8881
:1014D0001A430B891A434B891A438B891A43A0F884
:1014E000442070474FF6FF71818000210180C18048
:1014F0004180017270470021018041808180C1805C
:10150000018141818181C181704700210180418039
:10151000012181800021C18001817047002101806B
:1015200041808180C18001814181818170470000BB
:10153000002C01400034014000040040000800403D
:10154000000C004021B1028842F00102028004E058
:1015500002884FF6FE731A400280704731B1B0F82E
:10156000442042F40042A0F8442005E0B0F84420B2
:10157000C2F30E02A0F8442070471AB183890B43CE
:10158000838102E083898B43838170478182704726
:1015900041EA0203A0F8483070471AB183890B432F
:1015A000838102E083898B438381704701894FF6F1
:1015B000F8721140018170470A46002101894FF6F7
:1015C0008F73194011430181704730B504460D46B1
:1015D00029462046FFF7F0FF208940F007002081D0
:1015E00030BD2DE9F04104460D4616461F46602DDC
:1015F00006D13B46012231462046FFF75AFE05E060
:101600003B46012231462046FFF79DFE29462046F3
:10161000FFF7D2FF208940F007002081BDE8F0816C
:1016200030B50C4600210189C9B24FF6FF7505EAB5
:101630000325154325432943018130BD2DE9F041A0
:1016400005460E4617469846002443463A4631461C
:101650002846FFF7E5FF2C894FF6F870044044F068
:1016600007044FF68F70044044F070042C81BDE8ED
:10167000F081F0B504460D4616461F463B463246FD
:1016800029462046FFF7CCFF208940F48040208186
:10169000F0BD0185828270470A46002101884FF61D
:1016A0008F731940114301807047F0B50C46154601
:1016B0001E460021002200230189028B038C4FF675
:1016C000F877394021434FF6FC473A4040F2011782
:1016D0003A434FF6DD773B404FF6FF7707EA0617B0
:1016E0002F433B43018102830384F0BD0A4600215E
:1016F000018B4FF68F7319401143018370470A46DF
:101700000021018B48F6FF7319404FF6FF7303EA7F
:1017100002231943018370470A460021818B4FF64B
:101720008F7319401143818370470A460021818BD2
:1017300048F6FF7319404FF6FF7303EA022319437B
:101740008183704721B1028842F08002028004E068
:1017500002884FF67F731A400280704721B1828859
:1017600042F00402828004E082884FF6FB731A4044
:101770008280704721B1828842F00802828004E0B2
:1017800082884FF6F7731A408280704721B18288B1
:1017900042F00102828004E082884FF6FE731A4014
:1017A000828070470A460021018B4FF6F77319407B
:1017B0001143018370470A460021018B4FF2FF73EA
:1017C00019404FF6FF7303EA022319430183704760
:1017D0000A460021818B4FF6F7731940114381832C
:1017E00070470A460021818B4FF2FF7319404FF674
:1017F000FF7303EA02231943818370470A460021DD
:10180000018B4FF6FB7319401143018370470A4661
:101810000021018B4FF6FF3319404FF6FF7303EAA7
:1018200002231943018370470A460021818B4FF63A
:10183000FB7319401143818370470A460021818B55
:101840004FF6FF3319404FF6FF7303EA02231943A3
:10185000818370470A460021018B4FF67F73194040
:101860001143018370470A460021018BC1F30E0129
:101870004FF6FF7303EA02231943018370470A46B8
:101880000021818B4FF67F7319401143818370478C
:101890000A460021818BC1F30E014FF6FF7303EA64
:1018A00002231943818370470A460021018C4FF6B9
:1018B000FD7319401143018470470A460021018CD1
:1018C0004FF6F77319401143018470470A4600210F
:1018D000018C4FF6DF7319404FF6FF7303EA0213D2
:1018E0001943018470470A460021018C4FF67F732B
:1018F00019404FF6FF7303EA02131943018470473E
:101900000A460021018C4FF6FF5319404FF6FF7332
:1019100003EA02231943018470470A460021018C1F
:101920004FF2FF7319404FF6FF7303EA0223194386
:10193000018470470A460021018C4DF6FF7319405F
:101940004FF6FF7303EA023319430184704730B541
:10195000002301248C40A3B2048C9C430484048C97
:1019600002FA01F5ADB22C43048430BD30B500233A
:1019700004248C40A3B2048C9C430484048C02FA9B
:1019800001F5ADB22C43048430BD70B50346002090
:1019900000241846183001258D40ACB21D8CA5439B
:1019A0001D8409B1082909D100EB6100056825F003
:1019B000700505600568154305600EE00D1FC5F351
:1019C0004E052844056825F4E045056005684FF696
:1019D000FF7606EA02263543056070BD21B1028814
:1019E00042F00202028004E002884FF6FD731A40C2
:1019F0000280704721B1028842F00402028004E0B4
:101A000002884FF6FB731A400280704721B182882A
:101A100042F08002828004E082884FF67F731A4091
:101A20008280704702884FF6F7731A40028002885E
:101A30000A430280704782884FF68F731A40828073
:101A400082880A438280704702894FF6F8731A40F1
:101A5000028102890A430281704702894FF67F732F
:101A60001A40028102890A430281704781847047CB
:101A700081857047818670470187704781877047ED
:101A8000A0F84010704702884FF6FF431A400280CA
:101A900002880A43028070470146888E70470146DB
:101AA000088F70470146888F70470146B1F84000A3
:101AB00070470146888C70470146088D7047024682
:101AC0000020138A0B400BB1012000E0002070477A
:101AD000CA430282704730B502460020002300242A
:101AE000158A05EA0103958905EA010413B10CB1D1
:101AF000012000E0002030BDCA4302827047000090
:101B000010B50446FB48844209D101218803FFF740
:101B10009FF800214FF48040FFF79AF832E0F64832
:101B2000844209D101214804FFF79FF800214FF4B6
:101B30000030FFF79AF825E0F048844209D10121EE
:101B40008804FFF792F800214FF48020FFF78DF80A
:101B500018E0EB48844209D10121C804FFF785F859
:101B600000214FF40020FFF780F80BE0E5488442A5
:101B700008D101210805FFF778F800214FF4801003
:101B8000FFF773F810BD2DE9F04786B005460E4605
:101B90000024A24600BFA1460027B08900B100BFC3
:101BA0002F462C8A4CF6FF700440F08804432C82A8
:101BB000AC894EF6F3100440B0883189084371892E
:101BC00008430443AC81AC8A4FF6FF400440B0891F
:101BD0000443AC8201A8FEF7B4FFC648874202D195
:101BE000DDF810A001E0DDF80CA0A88900F40040A9
:101BF00040B10AEBCA0000EB0A1031684900B0FBA3
:101C0000F1F807E00AEBCA0000EB0A10316889001E
:101C1000B0FBF1F86420B8FBF0F004012009642166
:101C200001FB1089A88900F4004040B1322000EB8C
:101C3000C900B0FBF1F000F00700044308E03220D7
:101C400000EB09106421B0FBF1F000F00F00044339
:101C50002C8106B0BDE8F0874FF4165101600021D9
:101C60008180C18001810C214181002181817047E7
:101C700010B502460020108A4FF2FF0318400B886F
:101C80004C8823438C882343CC88234318431082F9
:101C900010BD0021018041808180C180704721B149
:101CA000828942F40052828104E082894DF6FF73FA
:101CB0001A4082817047F0B50346002400260025B3
:101CC000002040F66A17B94200D100BF1846C1F3A0
:101CD000421401F01F06012707FA06F5012C01D175
:101CE0000C3004E0022C01D1103000E014301AB1A5
:101CF00007682F43076002E00768AF430760F0BD45
:101D00001AB1838A0B43838202E0838A8B438382E6
:101D10007047028A4FF6F0731A400282028A0A4321
:101D20000282704782894FF2FF731A408281828952
:101D30000A438281704721B1828942F00202828186
:101D400004E082894FF6FD731A4082817047028A4F
:101D50004FF6DF731A400282028A0A4302827047FA
:101D600021B1028A42F48042028204E0028A4BF6E8
:101D7000FF731A4002827047C1F3080282807047E5
:101D800001468888C0F308007047818941F001014D
:101D900081817047028BD2B20283028B42EA012218
:101DA00002837047028B02F47F420283028B0A4354
:101DB0000283704721B1828A42F02002828204E0CD
:101DC000828A4FF6DF731A408282704721B1828A7D
:101DD00042F01002828204E0828A4FF6EF731A40CA
:101DE0008282704721B1828A42F00802828204E036
:101DF000828A4FF6F7731A408282704721B1828936
:101E000042F40042828103E08289C2F30E028281A1
:101E1000704721B1828A42F40062828204E0828AA1
:101E20004FF2FF731A4082827047828A4FF6FB732B
:101E30001A408282828A0A438282704721B1828A52
:101E400042F00202828204E0828A4FF6FD731A4059
:101E50008282704702460020B1F5007F00D100BFAA
:101E600013880B400BB1012000E00020704701F403
:101E70000072B2F5007F00D100BFCA4302807047F4
:101E800070B50246002400230025002040F66A16A3
:101E9000B14200D100BFC1F3421501F01F0301267A
:101EA00006FA03F3012D02D19689334006E0022D94
:101EB00002D1168A334001E0968A33400C12012683
:101EC00006FA04F41688344013B10CB1012000E086
:101ED000002070BD10B50022002340F66A14A14214
:101EE00000D100BF0A1201249440A3B2DC43048055
:101EF00010BD000000380140004400400048004090
:101F0000004C00400050004000B587B0012148045B
:101F1000FEF791FE01210520FEF780FE0121082039
:101F2000FEF77CFE0820ADF8180004208DF81B0099
:101F300006A9C248FEF7B6FB0420ADF8180002203F
:101F40008DF81A0018208DF81B0006A9BB48FEF773
:101F5000A9FB00210820FEF776FC26208DF814004E
:101F600001208DF815008DF816008DF8170005A8D2
:101F7000FEF741FA4FF4164001900020ADF808003A
:101F8000ADF80A00ADF80C00ADF810000C20ADF86B
:101F90000E0001A9AA48FFF7F6FD012240F22551E3
:101FA000A748FFF788FE0121A548FFF778FE4021EA
:101FB000A348FFF75CFF4021A148FFF74BFF07B0A4
:101FC00000BD00B587B0012144F20900FEF726FEEE
:101FD0008020ADF8180004208DF81B0006A9994850
:101FE000FEF760FB4020ADF8180002208DF81A00C3
:101FF00018208DF81B0006A99248FEF753FB01211B
:102000000420FEF720FC25208DF8140001208DF817
:10201000150000208DF8160001208DF8170005A886
:10202000FEF7E9F94FF4165001900020ADF80800D2
:10203000ADF80A00ADF80C00ADF810000C20ADF8BA
:102040000E0001A98048FFF79EFD012240F22551B4
:102050007D48FFF730FE01217B48FFF720FE40213D
:102060007948FFF704FF07B000BD10B5FEF71DF972
:1020700010BD10B5FFF7F9FFFFF7A3FFFFF744FF0F
:1020800010BD70472DE9F04105460E46002700249B
:1020900040216D48FFF7DEFE00BF0CE0315D6A486D
:1020A000FFF76AFE00BF40216748FFF7D3FE002814
:1020B000F9D0601CC4B2AC42F0DB3846BDE8F08118
:1020C00070B505460E46002440215D48FFF7C2FE6C
:1020D00000BF0CE0315D5A48FFF74EFE00BF4021C3
:1020E0005748FFF7B7FE0028F9D0601CC4B2AC42D5
:1020F000F0DB70BD10B540F225515148FFF7C0FE2E
:10210000B8B14F48FFF73CFEC4B25048007840B920
:102110004E4801780078401C4C4A10704C4844549A
:1021200007E04B48447000204849087001204949A5
:10213000087010BD48488078FE2802D0FF2805D1DD
:1021400003E001204549087000E000BF00BF704770
:1021500010B543490320FFF795FF10BD10B50821C6
:102160003948FFF777FE10B13748FFF709FE3D48C1
:10217000007800B110BD40F225513348FFF780FED2
:10218000002850D03048FFF7FBFDC4B23648007835
:1021900050B9A52C47D1A5202F49087001203249FC
:1021A0000870324908703EE03048007801280DD1AF
:1021B000142C02D000202C4908702C48017800789B
:1021C000401C2A4A1070244844542CE027480078C8
:1021D000022813D1FF2C01D0FE2C06D11E4884709A
:1021E000002021490870FFF7A5FF204801780078FA
:1021F000401C1E4A10701848445414E01B480178D3
:102200000078401C194A1070134844541046007856
:102210000A2808D10020144908701548006840F0C9
:1022200010001349086000BFA4E710B5FFF796FF40
:1022300010BD10B5FFF75EFF10BD000000080140A3
:1022400000440040000C0140003801402C000020F8
:1022500028000020320000207400002034000020FC
:102260002D00002033000020300000202B00002033
:1022700010040140704700BFFEE700BFFEE700BF4B
:10228000FEE700BFFEE770477047704770470000E9
:1022900010B5022300221946104600F0B9F94FF498
:1022A00020618D48FEF7ABFA4FF4A0618A48FEF733
:1022B000A8FA10BD00B589B0FDF7F7FF012140F67F
:1022C0000D00FEF7ABFC4FF47060ADF8200003206A
:1022D0008DF8220018208DF8230008A97F48FEF70A
:1022E000E1F900217E48FEF7AEFA4FF47060ADF8D8
:1022F000200010208DF8230008A97748FEF7D2F9B6
:1023000041F28830ADF818000020ADF81400ADF8A7
:102310001A00ADF8160005A97248FEF7B7FD702047
:10232000ADF804000120ADF806000220ADF80C0065
:1023300001A96C48FEF7E7FD08216A48FFF732FA69
:1023400001A96848FEF721FE08216648FFF733FA25
:1023500001A96448FEF766FE08216248FFF738FAD3
:1023600001A96048FEF7A9FE08215E48FFF739FA87
:1023700001215C48FFF7E6F801215A48FFF7EEF823
:10238000FFF786FF00215748FFF774FB00215548EF
:10239000FFF772FB00215348FFF770FB0021514803
:1023A000FFF76EFB09B000BD10B504462346224678
:1023B0002146204600F033F921014A48FFF75EFB31
:1023C00021014848FFF75CFB21014648FFF752FB1B
:1023D00021014448FFF750FB10BD10B504462046CC
:1023E000FFF7E2FF17204049086010BD10B500203C
:1023F000FFF7DAFF00203C49086010BD10B5032349
:1024000001221946104600F003F94FF420613248CA
:10241000FEF7F7F94FF4A0612F48FEF7F0F910BD71
:1024200010B57020FFF7D9FF02230122194610468C
:1024300000F0EEF84FF410612748FEF7E0F94FF492
:10244000C0612548FEF7DDF9AA20FFF7C6FF10BDE1
:1024500010B57020FFF7C1FF032300221946104674
:1024600000F0D6F84FF4C0611B48FEF7C8F94FF4EE
:1024700010611948FEF7C5F9AA20FFF7AEFF10BD9D
:1024800010B5FFF705FF10BD2DE9F04104460F46DA
:1024900015461E462146002000F0A4F839460120CA
:1024A00000F0A0F82946022000F09CF831460320F5
:1024B00000F098F821460B48FFF7DCFA3946094846
:1024C000FFF7DAFA29460748FFF7D8FA31460548F8
:1024D000FFF7D6FABDE8F081000C0140000801408A
:1024E000C0001600002C0140000401400020644997
:1024F00088700870C87048700021614881710020A0
:102500005F49087102215E48C171417100205C4938
:1025100008724872C860704732B1012A08D0022A96
:102520000AD0032A10D10BE0554B187019710BE03B
:10253000534B5870597107E0514B9870997103E0F3
:102540004F4BD870D97100BF00BF70474C4A907094
:102550001070D0705070E1B1012904D002290DD063
:1025600003291ED11CE00023454A93710022444BED
:102570001A710223424AD371537112E00123404A77
:10258000937101223E4B1A7103233D4AD37153715B
:1025900007E000223A4B9A701A70DA705A7000E025
:1025A00000BF00BF7047364908727047344948720F
:1025B00070473349C860704748B101280DD00228E0
:1025C00002D003280CD105E02D4A917108E02C4A75
:1025D000117105E02A4AD17102E0294A517100BF08
:1025E00000BF704748B101280DD0022802D003284F
:1025F0000CD105E0224A917008E0214A117005E0F3
:102600001F4AD17002E01E4A517000BF00BF7047E0
:1026100010B51B4C20716171A271E37110BD10B532
:10262000174C20706170A270E37010BD014649B173
:1026300001290DD0022902D003290CD105E0104850
:10264000807870470E480078FBE70D48C078F8E7BF
:102650000B484078F5E70020F3E70949097940EA9B
:102660008111C8B20649897940EA0111C8B204490A
:10267000497940EA8101C8B20149C97908437047E4
:1026800084000020002107E042F6E06100BF0A005C
:10269000A1F1010399B2FAD10200A0F1010398B2AD
:1026A000F2D170470648006840F001000449086014
:1026B000081D006840F00100091D08607047000017
:1026C0000004014010B50CE04FF47A70FFF7DAFF18
:1026D000FC48007820B9FC490320FFF7D3FC00E058
:1026E00000E0F1E700BF10BD70B5012405E0F74838
:1026F000005DF7490855601CC4B2092CF7DBF548AA
:10270000008840F00400F3490880F1488078F049DF
:10271000C9780844EE4909790844ED4949790844E3
:10272000EB4989790844EA49C9790844C4B2E748C1
:10273000007AA04260D1E648807810281CD1E44895
:10274000C078E54908600846006800020860E04873
:10275000007909680844E0490860DD484079DF49AC
:1027600008600846006800020860D9488079096856
:102770000844DA49086043E0D5488078132803D13B
:102780000120D74908703BE0D64800884FF6FF711A
:1027900088422AD0FFF7DCFCD3480078102803D108
:1027A0000020D149087004E0CF480078401CCE4991
:1027B0000870CD48017801208840CA49098808433B
:1027C000C8490880C848007800EB80004006040E25
:1027D000002507E0BD48405DC4490855601CC4B2EF
:1027E000681CC5B20A2DF5DB0AE0BA48008820F063
:1027F0000400B849088003E0BD490320FFF742FC0C
:102800000020BC49087070BDB648008808B9002097
:102810007047B9480078102803D10020B64B1870D3
:1028200004E0B5480078401CB34B1870B2480378F8
:1028300001209840AB4B1B888343AA480380AE48D5
:10284000007800EB8000022303EB4000C2B20021BD
:1028500007E0A648805CA94B5854501CC2B2481CE3
:10286000C1B20629F5DB0120D2E710B51020A4493A
:1028700008609848008820F0040096490880FFF717
:1028800033FF10BD10B510209E4988700020FFF75F
:10289000CDFE9C49C8700220FFF7C8FE9949087117
:1028A0000120FFF7C3FE974948710320FFF7BEFEE2
:1028B00094498871FFF7D1FE9249C8710846807823
:1028C000C97808448F49097908448E4949790844F0
:1028D0008C49897908448B49C97908448949087227
:1028E000AA2048720A20FFF7CDFB10BD2DE9F04168
:1028F00006460C4615468449304601F025FD07463C
:1029000001F0A2FC8149088020207E4988707F4820
:1029100000880012C8707D4800780871084644712C
:1029200085710020C87108468078C97808447549C7
:1029300009790844734949790844724989790844F6
:102940007049C97908446F490872AA2048720A2060
:10295000FFF798FBBDE8F08170B504466A49204650
:1029600001F0F2FC054601F06FFC68490880252063
:1029700064498870654800880012C8706348007810
:1029800008710020FFF752FE5E4948710120FFF7F1
:102990004DFE5C498871FFF760FE5A49C8710846D0
:1029A0008078C978084457490979084455494979D4
:1029B00008445449897908445249C979084451491D
:1029C0000872AA2048720A20FFF75CFB70BD10B5A0
:1029D000044626204B4988702012C8700C710120D3
:1029E000487100208871C87108468078C978084409
:1029F0004449097908444349497908444149897956
:102A000008444049C97908443E490872AA204872DE
:102A10000A20FFF737FB10BD70B504463A4920463F
:102A200001F092FC054601F00FFC38490880A02017
:102A300034498870354800880012C87033480078DF
:102A40000871002048718871C87108468078C9787B
:102A500008442C49097908442A49497908442949F4
:102A6000897908442749C979084426490872AA2067
:102A700048720A20FFF706FB70BD10B50446A1207E
:102A8000204988700846C470002008714871887118
:102A9000C87108468078C97808441A4909790844F9
:102AA0001849497908441749897908441549C97969
:102AB000084414490872AA2048720A20FFF7E2FA73
:102AC00010BD0000340000203900002074000020F8
:102AD000340100200C380140580000205C00002028
:102AE00070000020500000205400002094000020BE
:102AF0003C00002033000020550000204900002049
:102B0000140401403F0000200000C8425200002091
:102B100070B506460C461546A220574988700846EF
:102B2000C670201208714C7128128871CD71084648
:102B30008078C97808445049097908444E49497950
:102B400008444D49897908444B49C97908444A49A0
:102B50000872AA2048720A20FFF794FA70BD70B577
:102B600006460C461546A320434988700846C670A1
:102B7000201208714C7128128871CD710846807836
:102B8000C97808443C49097908443B4949790844D3
:102B90003949897908443849C9790844364908725D
:102BA000AA2048720A20FFF76DFA70BD70B505467D
:102BB0000C46A420304988703049284601F0C4FBF7
:102BC000064601F041FB2E490880084600880012A5
:102BD0002949C8702A48007808712849204601F020
:102BE000B3FB064601F030FB254908800846008803
:102BF0000012214948712248007888710020C8716C
:102C000008468078C97808441B49097908441A495C
:102C1000497908441849897908441749C979084409
:102C200015490872AA2048720A20FFF72BFA70BDD6
:102C300010B50446A520104988702012C8700C7188
:102C4000002048718871C87108468078C9780844A6
:102C500009490979084408494979084406498979A4
:102C600008440549C979084403490872AA204872F2
:102C70000A20FFF707FA10BD3F0000200000C842FD
:102C80005200002010B50020FFF78EFB10BD10B5DC
:102C90000446FFF7FDFA2046FFF786FB10BD10B58E
:102CA0000446FFF7ABFB2046FFF77EFB10BD10B5D7
:102CB0000446FFF7B5FB2046FFF776FB10BD10B5C5
:102CC0000446FFF7C5FB2046FFF76EFB10BD10B5AD
:102CD0000446FFF7D5FB2046FFF766FB10BD10B595
:102CE0000446FFF79DFB2046FFF7CCFCFFF7C8FB2F
:102CF00010BD10B50446FFF7ABFB2046FFF7C2FC42
:102D0000FFF7BEFB10BD000010B522490520FFF7FC
:102D1000D7F910BD70B505461F49284601F014FBD0
:102D2000064601F091FA84B220121C49C8700C7159
:102D30000520FFF7C5F970BD70B50020184908706F
:102D400018490520FFF7BCF90BE0601C84B20A208B
:102D5000FFF798FC0A2C04D112490520FFF7B0F9BF
:102D600000240F4800780028EFD00F4804784FF671
:102D7000FF7000EA04240C484078204484B22046C6
:102D800001F09AFA05460449284601F09BF90546E8
:102D9000284670BD650000200000C8426A0000207F
:102DA000320000206000002028000020002012498E
:102DB000896941F00801104A91611146896941F021
:102DC000040191610D49096800210C4A11600C4908
:102DD000096801F007010A4A11604FF45171074A6E
:102DE000116007E005490831096888B28100034A8B
:102DF0000C321160F6E700000010024000080140AC
:102E0000040C01402DE9F04F89B081460C46FE4884
:102E10000068814559DDFD480068844227DDFA4994
:102E20000968A9EB010001F02FFA8346F749096808
:102E3000601A01F029FA08905846089901F042F901
:102E4000039001F0A5F8CDE9040100F061FB07460D
:102E50000022EF4B00F0A8FEEE4AEF4BCDE9060151
:102E600000F04AFD054600F065FC82468CE0E6492C
:102E70000968A9EB010001F007FA8346E3490968F4
:102E8000081B01F001FA08905946089801F01AF958
:102E9000019001F07DF8CDE9020100F039FB00223C
:102EA000DB4BCDE9040100F07FFE0546D94ADA4B41
:102EB00000F022FD07460022D84B00F06DFCCDE962
:102EC000060100F037FC82465EE0D048006884428C
:102ED0002DDDCD490968A1EB090001F0D5F9834644
:102EE000CA490968601A01F0CFF908905946089854
:102EF00001F0E8F8019001F04BF8CDE9020100F093
:102F000007FB05460022C24B00F04EFEC14AC24BF1
:102F1000CDE9040100F0F0FC0022C14BCDE906012F
:102F200000F03AFC074600F005FC82462CE0B6496A
:102F30000968A1EB090001F0A7F98346B3490968C4
:102F4000081B01F0A1F908905846089901F0BAF859
:102F5000019001F01DF8CDE9020100F0D9FA074611
:102F60000022AB4B00F020FEAA4AAB4BCDE9040196
:102F700000F0C2FC0022A64BCDE9060100F00CFCDB
:102F8000054600F0D7FB8246504609B0BDE8F08FF9
:102F900070B504460D462946204601F0D2FA064691
:102FA000A049304601F09CFA04D29F49304601F016
:102FB000D3FA06469D49304601F092F904D29A4967
:102FC000304601F011F80646304670BD2DE9F84F45
:102FD00000209749087000BF8B48006818B98B48DB
:102FE00000680028F8D00024C5E004EB44009149B3
:102FF00001EB4000458804EB440001EB400086886B
:10300000324629462046FFF7AAFD31462846FFF7FB
:10301000F9FE0090FFF790FE814649460098FFF7C1
:10302000C5FD0020844908700098FFF773FE4846EC
:103030000099FFF7ADFF81460021484601F050F9A5
:1030400003D28020FFF733FE02E08020FFF737FE37
:1030500000BF794800780028FBD00020FFF737FE3A
:103060004FF47A70FFF70EFBAA20FFF710FEFFF770
:1030700063FE81464846FFF7CFFC6AE06C48007863
:10308000012804D1FFF7FEFD0020BDE8F88F5E485F
:103090000088281A1FFA80FB5C480088301A87B223
:1030A0000BFB0BF007FB07001FFA80F8B8F5617FF8
:1030B00008DAFFF7E7FD012004EB44015D4A02F85E
:1030C000110047E031462846FFF79CFE0090FFF7CD
:1030D00033FE814649460098FFF768FD484600994F
:1030E000FFF756FF81465549484601F0F9F804D3E9
:1030F0005349484601F0F4F92BD20021484601F02B
:10310000EFF912D24F49484601F0EAF902D24FF0E6
:10311000FF0A04E0484601F097F800F0FF0A4FEA82
:103120008A61080EFFF7E5FD13E089F00049454983
:10313000484601F0D5F902D24FF0FF0A04E04846B4
:1031400001F082F800F0FF0A4FEA8A61080EFFF7EB
:10315000C6FD93E700BF04EB4400364901EB400095
:103160004078012802D1601CC4B204E04046FFF759
:103170005FFD012089E7102CFFF637AF002084E7C0
:103180002DE9F05F04460D4600202949087000BF74
:103190001D48006818B91D4800680028F8D02A4664
:1031A00021460020FFF7DBFC29462046FFF72AFED8
:1031B0008346FFF7C1FD064631465846FFF7F6FC49
:1031C00000201D4908705846FFF7A4FD59463046B7
:1031D000FFF7DEFE06460021304601F081F803D2FB
:1031E0008020FFF764FD02E08020FFF768FD00BF4C
:1031F000114800780028FBD00020FFF768FD4FF44D
:103200007A70FFF73FFA1FE0580000205C000020B2
:10321000008066406F1283C0CA210940008056407A
:1032200000E07040000034430000B443000034C3A9
:1032300070000020440100206F000020000040C00A
:103240000000404000007F43AA20FFF720FDFFF769
:1032500073FD06463046FFF7DFFB6CE04F48007811
:10326000012802D1FFF70EFD66E04D480088201AC4
:103270001FFA80F94B480088281A87B209FB09F029
:1032800007FB07001FFA80F8B8F51C7F09DC4046F1
:10329000FFF79DFBFFF7F6FC4046FFF7C9FCBDE8D2
:1032A000F09F29462046FFF7ADFD8346FFF744FD1A
:1032B000064631465846FFF779FC59463046FFF737
:1032C00067FE06463046FFF7A7FB3749304601F058
:1032D00007F804D33549304601F002F92BD200211A
:1032E000304601F0FDF812D23149304601F0F8F8CD
:1032F00002D24FF0FF0A04E0304600F0A5FF00F0D4
:10330000FF0A4FEA8A61080EFFF7F3FC13E086F02C
:1033100000462749304601F0E3F802D24FF0FF0A99
:1033200004E0304600F090FF00F0FF0A4FEA8A61A7
:10333000080EFFF7D4FC91E700BF00BFAFE72DE90F
:10334000F04704464FF07C51204600F0FDFF8046D8
:1033500025461848A0EB65052C464146204600F05E
:10336000F3FF8146214600F0EFFF07464FF07F5103
:1033700001F0E7F80646214600F0E6FF0446204645
:10338000BDE8F08710B50120FDF712F920B101204A
:1033900009490870FDF71DF910BD000070000020FC
:1033A000580000205C000020000040C000004040A9
:1033B00000007F43865A375F6F00002070477047D8
:1033C0007047754600F028F8AE460500694653463A
:1033D00020F00700854618B020B5FCF7F5FFBDE8E2
:1033E00020404FF000064FF000074FF000084FF06C
:1033F000000B21F00701AC46ACE8C009ACE8C009FD
:10340000ACE8C009ACE8C0098D4670470446AFF38C
:1034100000802046FCF7D3FE00487047A40100203E
:1034200001491820ABBEFEE72600020070474900A4
:1034300050EAC12018BF04204A0D18BF40F0010017
:1034400040F2FF72B2EB515F08BF40F0020001286A
:1034500008BF052070472DE9F0414F1E00EBC70162
:103460000446D1E9000115461E4637F006020DD08C
:103470002A46334600F098FB7F1E04EBC703D3E9CE
:10348000002300F089F937F00602F1D1022F25D090
:10349000042F13D0062F18BFBDE8F0812A4633460B
:1034A00000F082FBD4E90A2300F076F92A4633467D
:1034B00000F07AFBD4E9082300F06EF92A4633467F
:1034C00000F072FBD4E9062300F066F92A46334681
:1034D00000F06AFBD4E9042300F05EF92A46334683
:1034E00000F062FBD4E9022300F056F92A46334685
:1034F00000F05AFBD4E90023BDE8F04100F04CB9DC
:10350000024A0020110701F0CEB8000001FDFFFFC4
:103510002DE9F84F04460D4621F000400091744912
:10352000814213DC7349884201DC08D13CB120465A
:103530002946BDE8F84F4FF0010201F0B4B86E48DB
:10354000002DCCBF6D496E49BDE8F88F6D498142B1
:1035500011DD6D498142D8BF4FF0FF366DDD204649
:103560002946FFF764FF042808BFFFF7C9FF20467C
:103570002946BDE8F88F6549654F25F00045814231
:1035800033DD6449814219DD002632464FF0804325
:103590002046294600F000F980468A46012220464E
:1035A000294601F080F800223B4600F007FC424625
:1035B000534600F0A1F904460D463EE001260022E4
:1035C000BA463B462046294600F0E6F880460F46BC
:1035D000002253462046294600F0F0FB42463B4677
:1035E00000F08AF904460D4627E04B4981421BDD75
:1035F000DFF828810226002243462046294600F0B3
:10360000D3FA00223B4600F0C7F807468A4600225C
:1036100043462046294600F0D1FB3A46534600F087
:103620006BF904460D4608E0032622462B4600208F
:103630003B4900F061F904460D4622462B461046F0
:10364000194600F0B1FA8B46824602460B4600F05E
:10365000ABFA07460246334888460B4606217844B3
:10366000FFF7F9FE52465B4600F09EFA82462E486E
:103670008B463A46434605217844FFF7ECFE3A462E
:10368000434600F091FA02460B46002E504659463A
:103690000CDA00F081F822462B4600F085FA01B0E2
:1036A00022462B46BDE8F04F00F07CBB00F074F8DA
:1036B00022462B4600F078FA1C4A7A4402EBC603F5
:1036C000D3E9002300F07AFB22462B4600F076FB7C
:1036D000174A7A4402EBC603D3E9002300F062FBE9
:1036E000009A002AB8BF81F00041BDE8F88F0000C1
:1036F000000010440000F07F182D4454FB21F93FD6
:10370000FB21F9BF0000DC3F0000203E0000F33F3A
:103710000000F03F0000E63F008003400000F83F5B
:103720000000F0BF3E110000FC1000009A100000E5
:103730006210000021F00042A2F16052B2F5801F39
:1037400001F0004328BFD2F17F6C0BD95FEA001C67
:1037500043EAC20242EB507018BF704728BF20F006
:1037600001007047B2F5801FBCBF184670474FEA92
:10377000410C1CF5001F02D2084600F0ACBE70B52B
:1037800000F0BCFA00000089FFF7F6BF4FF00040E0
:10379000A0F580007047000010B591EA030F48BF04
:1037A00083F0004300F11283841A71EB030C05D2FD
:1037B000121943EB0C03001B61EB0C01DFF824E151
:1037C0004FEA1154A4EB135C1EEA430F18BF9EEAA4
:1037D000445F73D023EA0E03DCF1200E21EA04518A
:1037E00043F4801332D322FA0CFE10EB0E0023FABE
:1037F0000CFE41EB0E01CCF1200E03FA0EFE10EB95
:103800000E0051F10001B1F5801FCCF1200E32D233
:1038100001EB045112FA0EF2BDE8104058BF704798
:10382000401C38BF5FEA420218BF7047002814BF2F
:1038300020F0010041F100014FEA410313F5001FA0
:1038400038BF7047A1F1C04100F0A6BA012A43EB8E
:103850000302ACF1200CDCF11F0E32BF4FF0000E62
:1038600023FA0CF310EB030041EB0451B4EB115FAE
:10387000D0D0A1EB045101F5801149085FEA300076
:1038800001EB04510ED350F1000038BF12FA0EFEC6
:1038900008D1BDE81040C9E7401C38BF5FEA4202CA
:1038A000CAD1C3E7BDE810404FEA410313F5001F3A
:1038B00038BF7047A1F1C04100F06EBA9EEA445F84
:1038C00008D011EA5E0FBDE8104004BF01F00041CE
:1038D00000207047BDE8104070B500F00FFA00BF3F
:1038E00064FBBE3E0000E0FF02494FF0000000F024
:1038F000A8BE00BF0000F87F2DE9C04130B4DFF85A
:10390000A0C23CEA111418BF3CEA131400F0EC808A
:1039100081EA03051CEA111444EAD57418BF1CEAB5
:10392000131500F0C780A4EB05044FF0004545EAED
:10393000C12145EAC32341EA505143EA525304F1FD
:103940007F74994204F500344FEAC0204FEAC22246
:1039500008BF904200F09C804FEA13650FF24016BA
:10396000765D4FEA134506FB05F7C7F1807706FB46
:1039700007F74FEAD737A7FB03687642C8F58038C8
:10398000A7FB06CE38BFA8F1010807FB08E64FF0F9
:10399000000EA6FB028CE6FB03CEDCF1000CCEF1A0
:1039A000004E38BFAEF1010EA6FB0C584FF00007D9
:1039B0004FF00005E6FB0E87A1FB08C6A0FB07CE73
:1039C00016EB0E0645F10005E1FB076515F1E04E2B
:1039D0007EBFA4F580345FEA46066D4116F180078C
:1039E00045F100054FEA17274FEA066647EA0567E3
:1039F000A6F1DE46B6F1805F4FEA15251FD938469D
:103A000024F0010C05EBC471BCF1FE6F01EB0C114D
:103A100002D8F0BCBDE8008124425CBF01F5801EE5
:103A20009EEAC47F02D4F0BCBDE80081244238D4B1
:103A3000F0BCA1F1C041BDE8004100F0ADB94FEAD2
:103A4000D22242EA43524FEAD323A7FB02864FEA2F
:103A5000D02040EA415007FB03661EEA0E0F4FEAF2
:103A6000D12105FB026658BFA6EB0056B6EB005607
:103A70004FEA520E4EEAC37E18EB0E0E56EB530E73
:103A8000BDD518EB02085E417F1C55F10005B6E775
:103A90004FF480154FF000074FF000064FF000087C
:103AA000ADE7F0BC4FF0000001F1C04101F0004172
:103AB000BDE8008111EA0C1F0CEA131500D00CE0E0
:103AC00013EA0C1F00F025804FF00000F0BC81EAE3
:103AD000030101F00041BDE80081F0BC81EA03016F
:103AE000BDE8004100F058B9F0BCBDE8004170B538
:103AF00000F004F9097EFC3E00F007B881EA0301FA
:103B00004FF0000001F00041704781EA030100F02E
:103B100043B9F0BC4FF000002249BDE800417047B6
:103B2000FFFDFBF9F7F5F4F2F0EEEDEBE9E8E6E482
:103B3000E3E1E0DEDDDBDAD8D7D5D4D3D1D0CFCD09
:103B4000CCCBCAC8C7C6C5C4C2C1C0BFBEBDBCBB42
:103B5000BAB9B8B7B6B5B4B3B2B1B0AFAEADACAB3D
:103B6000AAA9A8A8A7A6A5A4A3A3A2A1A09F9F9E17
:103B70009D9C9C9B9A9999989797969595949393C9
:103B8000929191908F8F8E8E8D8C8C8B8B8A898960
:103B900088888787868585848483838282818180E3
:103BA0000000FF070000F87FDFF848C170B51CEA8D
:103BB000111E1EBF1CEA13159EEA0C0F95EA0C0F8E
:103BC00000F06F8081EA030423EA4C134EEAD47EAE
:103BD00021EA4C1141F4801143F48013AE44A1FB5F
:103BE000024CA0FB0365AEF17F7E361955EB0C0548
:103BF000A1FB034C4CF10003A0FB021C16EB0C06CE
:103C0000654153F10003094218BF46F0010613F461
:103C1000007F0BD14FEA03314FEA0530340341EA0C
:103C2000155140EA16506FF003020AE04FEAC32133
:103C30004FEAC520F40241EA555140EA56506FF070
:103C4000020202EB2E4201EB025585EACE710AD048
:103C50005FEA440C18BF24F0004450F1000041F129
:103C6000000120EAD47040F2FE7C624500D270BDB3
:103C7000A84214BF4FF080444FF04044002E08BFCC
:103C80000024BEF1806FA8BFA1F1C041BDE8704023
:103C900080F282804FF0000001F1C04101F000414C
:103CA00070479EEA0C0F0CEA131518BF95EA0C0F2B
:103CB00006D04FF0000081EA030E0EF0004170BD07
:103CC00000F01CF88900013E00F007B800F009B8C8
:103CD0004FEA430C5FEA5C5C08D081EA030100F024
:103CE0005BB84FEA410C5FEA5C5CF6D14FF0000034
:103CF000014970470000FF070000F87F0EF1020E37
:103D00002EF0030E5EF8046B364205D4012A43EB15
:103D1000030515F5001F12D8012841EB010C1CF515
:103D2000001F0CD80ED14FEAD17C15F5001F0CEB0B
:103D30004C0C0CF1020C08BF4CEBD37C04E04FF0B0
:103D4000080C01E04FEAD37C0CEB4C0526FA05F693
:103D500006F00706B6F1040C06D20EEB860CBDE8A1
:103D600070404CF0010C6047DFE80CF0090B0202D8
:103D70004FF000414FF00000A1F5002170BD194641
:103D80001046012851EB010418BFD4F5001484BF7C
:103D9000002001F0004170BD0808A0F500114FEAB5
:103DA0003101704791EA030F10B581F000413FF5F2
:103DB000FBAC83F0004300F009B8000010B591EAB5
:103DC000030F48BF83F000433FF5EEAC841A71EB5C
:103DD000030C07D212198CF0004C43EB0C03001BB0
:103DE00061EB0C01DFF8A4E14FEA1154A4EB135C82
:103DF0001EEA430F18BF9EEA445F00F0B08023EA3A
:103E00006E03524221EA0451C3EB6E0338BF5B1EBE
:103E1000DCF1200E25D322FA0CFE10EB0E0043FA43
:103E20000CFE41EB0E01CCF1200E03FA0EFE10EB5E
:103E30000E0051F10001CCF1200E29D412FA0EF23D
:103E400001EB0451BDE8104058BF7047401C1CBF37
:103E5000B2F1004F704700280CBF491C20F0010050
:103E6000704712EB020E43EB030218BF4FF0010E36
:103E70004EEA4202ACF1200CDCF11E0E54D943FA9A
:103E80000CFE10EB0E0051F1FF31CCF11E0ED5D51A
:103E90000EF1010E12FA0EFE404141EB010101EB61
:103EA000445C5FEA5C5C10D910EBDE7001EB0451FE
:103EB00038BFBEF1004FBDE8104018BF7047002862
:103EC0000CBF491C20F00100704730D24FEAD42CBF
:103ED00011F5001124F400641BD0B1FA81F20B3A01
:103EE000A41AA41ED2F12003914030FA03F319431F
:103EF000904001EBCC71002C01EB0451BDE8104067
:103F0000A8BF704701F1C0414FF0000001F000412F
:103F10007047B0FA80F310FA03F100D110BDE41A33
:103F2000173C4805C90AE4E701EB045110BD4910EC
:103F300001EB0451BDE810404FEA300002E04FF0C1
:103F4000000170474A0008BF0042F8D0B2F5001FD8
:103F500028BF704701F000414FF0000070479EEA13
:103F6000445F07D011EA5E0FBDE8104004BF002196
:103F700000207047BDE8104070B5FFF7BFFE00BFDE
:103F800040DFF63E83F00041104670470000E0FF3E
:103F900043004FEAD30C4FEA3C0C43401FBF40079D
:103FA0000CF1605113F0FE4F70471CF0006F03D10D
:103FB00000200CF0004170470CF0004343EA5070C1
:103FC00010B540EACC0000F040FA00BF00000092BB
:103FD0004FEA0001FFF7E0BE4FF000414FF0000054
:103FE000A1F500217047000090EA010F48BF81F061
:103FF000004100F1B882421A3CBF801A89184FEA8A
:10400000D0524FF07F4C1CEA410FA2EBD15318BFA6
:104010009CEA026F00F03B804FF0004C4CEA00201D
:104020004CEA012121FA03FC10EB0C0C1ED202F128
:10403000FF325FEA1C2040EBC25038BF70471CF0D3
:104040007F0F4FEA400C18BFBCF17F4F38BF70475D
:10405000C3F12003994008BF20F00100BCF17F4F5D
:1040600038BF7047A0F1C04000F035BA4FEA3C00BD
:10407000000A40EBC25028BF1CF0FF0F4FEA400C73
:10408000E6D018BFBCF17F4F38BF7047EAE79CEA23
:10409000026F05D010EA5C0F08BF00F000407047C7
:1040A00010B500F0D2F900BF64FBBE3E401058BF0F
:1040B000C0F14040491058BFC1F140418142EFF387
:1040C000008070474FF47F0C1CEAD0121EBF1CEA20
:1040D000D11392EA0C0F93EA0C0F00F0858090EA5E
:1040E000010F48BF42F4807240F4000C41F400001C
:1040F0002CF07F4120F07F4000B58142A2EB03020B
:104100000FF2081CACEB504EC0F100009EF800E02E
:104110004FEA4E0E00FB0EFC38BF49004FEA2C1C44
:1041200002F5FA020CFB0EF34FEACE1E4FEA112CF9
:104130004FEAC1210EEB635E42EB22420EFB0CFC08
:104140004FEA1C5300FB03114FEA112C4FEA0131D7
:104150000EFB0CFC4FEADC4C00FB0C11C14228BFEB
:1041600009184CEB03335DF804EB10EB410143EB12
:10417000C250B2F57C0F38BF704729D512F0F00F4E
:104180001CBF00F1C04000F00040704700818283F6
:104190008485868788898B8C8D8E8F919293959656
:1041A00097999A9C9D9FA0A2A3A5A7A8AAACAEB0E0
:1041B000B2B3B5B7B9BCBEC0C2C5C7C9CCCED1D4E5
:1041C000D7D9DCDFE2E6E9ECF0F3F7FAFE00000015
:1041D0004FEA400C0CF1807CBCF17E4F28BF704749
:1041E000B0F1C04000F077B990EA010F0CEAD113AA
:1041F00048BF42F48072624538BF634507D213F46A
:104200007F0F16D080EA010000F00040704710B523
:1042100000F01BF9097EFC3E00F005B880EA0100C1
:1042200000F00040704780EA010000F0004000F01C
:1042300052B912F47F0F04BF0248704780EA0100B0
:1042400000F049B90000C07FC10DD1F19E0206DB2C
:104250004FEA002343F0004323FA02F07047004284
:1042600007D54FEA4001B1F1FE4F02D24FF00000F6
:10427000704710B500F0E9F849922480002070479B
:104280006FEA20007047000010F0004148BF404234
:10429000B0FA80F310FA03F2C3F19D030BD051EA98
:1042A000C35101EB1220530638BF704700F10100E3
:1042B00008BF20F001007047B0FA80F310FA03F253
:1042C000C3F19D030AD0D90501EB1220530638BF74
:1042D000704700F1010008BF20F0010070470000A6
:1042E00050EA010C00F113801CF5000F58BFBCF51B
:1042F000000F01D48842704707D710F5000F58BF50
:1043000011F5000F15D488427047894270471CF59B
:10431000000F04D5BCF5000FF7D5814270474FF070
:10432000807C1CEB400F38BF1CEB410F01D2814257
:10433000704710B500F089F8922449004FF0005002
:104340004FF08051FFF7B2BE4FF47F0C1CEAD01241
:104350001EBF1CEAD11392EA0C0F93EA0C0F00F077
:10436000478090EA010F48BF42F480724FF0004C42
:104370004CEA00204CEA012102EB0302A0FB0113EE
:10438000A2F50002002918BF43F001035B0028BF1B
:104390004FEA330342EB22425FEA132C4CEBC2504C
:1043A0002EBFBCEB436FB2F57C0F70474FEA036C36
:1043B000BCF1004F08BF20F00100B2F57C0F38BF00
:1043C00070470BD582F0FF0212F5803FC8BF7047DF
:1043D00000F1C040D8BF00F00040704700F5000C6D
:1043E0005FEA4C0C48BF7047B0F1C04000F073B8B2
:1043F00090EA010F0CEAD11348BF42F48072624583
:1044000038BF634504D280EA010000F000407047E5
:1044100010B500F01AF800BF8900013E00F007B89F
:1044200000F009B85FEA410C5FEA1C6C08D080EA32
:10443000010000F050B85FEA400C5FEA1C6CF6D156
:104440004FF00040A0F5800070470EF1020E2EF0F4
:10445000030E5EF8044B244204D44FEA4102B2F149
:104460007F4F11D84FEA4003B3F17F4F0CD80ED1E4
:104470004FEAD07CB2F17F4F0CEB4C0C0CF1020CEC
:1044800008BF4CEBD17C04E04FF0080C01E04FEA90
:10449000D17C0CEB4C0324FA03F404F00704B4F1D0
:1044A000040C06D20EEB840CBDE810404CF0010C5D
:1044B0006047DFE80CF0070802024FF00040A0F56B
:1044C000800010BD0846420018BFD2F1807288BF3C
:1044D00000F0004010BDFF2141EAD050C0057047F8
:1044E00051EA000C00F113801CF5000F58BFBCF519
:1044F000000F01D48142704707D711F5000F58BF54
:1045000010F5000F15D481427047894270471CF5A1
:10451000000F04D5BCF5000FF7D5884270474FF067
:10452000807C1CEB410F38BF1CEB400F01D288424E
:10453000704780EA010081EA000180EA0100FFF78C
:10454000F8BE80F0004090EA010F7FF554AD81F095
:10455000004100F008B8000090EA010F48BF81F068
:1045600000413FF548AD421A04D882F00042A0EB6A
:10457000020011444FEAD0524FF07F4C1CEA410F29
:10458000A2EBD15318BF9CEA026F4AD04FF0004C07
:104590004CEA00204CEA012121FA03FCB0EB0C0CA0
:1045A0000FD412F0FE0F36D05FEA4C001DD500127A
:1045B00040EBC25038BF70471CF03F0F18BF704728
:1045C0000BE0A2F101025FEA1C2040EBC25038BFB1
:1045D00070471CF07F0F18BF7047C3F1200399404C
:1045E00014BF401E20F00100704780084FEA1223DC
:1045F00008BF7047B0FA80FCA2EB0C02CCF1280C8B
:1046000060FA0CF093EA122F04BF00EBC25070471F
:104610004FEAC3707047130A5FEADC1008BF7047A7
:10462000F6E79CEA026F04D010EA5C0F08BF002096
:10463000704710B5FFF709FF40DFF63E81F00040FC
:1046400070470CF00F03092B08BF082000F05980B9
:104650000A2B0BD0082B18BF704708BF1CF0400F67
:104660000AD04FF000004FF0000170471CF0400FDF
:1046700018BF4FF0004070471CF0100F08D020F01A
:10468000704300F07F4242EAD3014FEA4370704723
:1046900000F0604021F07F4242EA000201F07F40DA
:1046A00040EA727070474FF0FF0C4CF4E06C1CEA6B
:1046B00011531CBF9CEA030C9445C2BFDA4201EBC4
:1046C00002517047002B0DD0BCF1000F0FD0002A13
:1046D00001F00041A4BF41F0E04141F07F614FF0A3
:1046E0000000704701F000414FF00000704750EAB1
:1046F00001334FF09B0C18BF4CF0806C7FF4F4A892
:1047000070471CF4801F11D01CF4E02F03D06FEA17
:10471000CC31490070474FF04050EFF3008222F057
:10472000704242EA000282F3008870474FF00000B6
:1047300070470000000000004FBB610567ACDD3F23
:10474000182D4454FB21E93F9BF681D20B73EF3FB8
:10475000182D4454FB21F93FE2652F227F2B7A3C30
:10476000075C143326A6813CBDCBF07A8807703CE9
:10477000075C143326A6913CC4EB98999999C9BF5C
:10478000711623FEC671BCBF6D9A74AFF2B0B3BF91
:104790009AFDDE522DDEADBF2F6C6A2C44B4A2BF51
:1047A0000D5555555555D53FFF8300922449C23FBD
:1047B0006E204CC5CD45B73F513DD0A0660DB13FF1
:1047C000EB0D76244B7BA93F11DA22E33AAD903F03
:1047D000F047000800000020740000006C01000891
:1047E0006448000874000020940700008801000855
:1047F00000A24A04000000000000000001020304BF
:104800000607080900000000010203040102030476
:1048100006070809020406080000000100A514FFAD
:10482000000000000000000000A514FEA51430A543
:104830001400000000000000000000000000000064
:104840000000000010100000000000000000000048
:10485000A55A010000A55A000000A55A0200000058
:044860000000000054
:0400000508000131BD
:00000001FF
